:1000000000308A00D12A0000FF00030E8301A10006
:100010007F08A0000A08A8008A01A00E0408A20018
:100020007708A3007808A4007908A5007A08A6003C
:100030007B08A700831383128C308400801C222845
:100040008C183528220884002308F7002408F800BB
:100050002508F9002608FA002708FB0028088A006E
:10006000210E8300FF0E7F0E09008A1137282B0F07
:100070003A283B28AB0A2D08403C0318AD0A8C10E7
:100080008A1122281230BC02031C54283C30840000
:10009000FC3080050310800C800C000803195428E4
:1000A00052280000800B512800343908BB00380862
:1000B000BA00BA08031D5F28BB080319722883160B
:1000C0000610831206143608BC0042208316061060
:1000D000831206103608BC0042203A080319BB03FD
:1000E000BA035928003437308400000803198728E0
:1000F0000130F800F701F70B7B28F80B7A284A301B
:10010000F700F70B812800000000800B78280034EE
:10011000831686158312861DB3290130B500F4308D
:10012000B4003508033C031CA928031D9B28340890
:100130001F3C031CA9283508B7003408B600350851
:10014000B9003408B80055206430B4070318B50A64
:1001500091280430B600FA30B7007320B60BAB28F4
:1001600083160613831206138316861383128613CF
:1001700083160612831206128316861283128612C3
:1001800083168612831286128316061283120616AF
:100190000430B600FA30B7007320B60BCA288316B5
:1001A00006128312061283168612831286120430F8
:1001B000B600FA30B7007320B60BD92883160612A2
:1001C0008312061283168612831286160430B60036
:1001D000FA30B7007320B60BE82883160612831294
:1001E000061283168612831286120430B600FA3085
:1001F000B7007320B60BF7280330B7007030B60095
:10020000B9016430B80055200430B600FA30B700A8
:100210007320B60B06298316861383128613831662
:100220000613831206170430B600FA30B7007320A5
:10023000B60B15298316061383120613831686132D
:10024000831286130430B600FA30B7007320B60B61
:10025000242983160613831206138316861383122A
:1002600086170430B600FA30B7007320B60B332976
:1002700083160613831206138316861383128613BE
:100280000430B600FA30B7007320B60B42290330B1
:10029000B7007030B600B9016430B80055200430A2
:1002A000B600FA30B7007320B60B512983168613B7
:1002B000831286138316061383120617831686127B
:1002C0008312861283160612831206160430B600B5
:1002D000FA30B7007320B60B682983160613831211
:1002E000061383168613831286138316061283124F
:1002F000061283168612831286120430B600FA3074
:10030000B7007320B60B7F298316061383120613DA
:10031000831686138312861783160612831206121B
:1003200083168612831286160430B600FA30B700A0
:100330007320B60B962983160613831206138316B1
:1003400086138312861383160612831206128316EF
:100350008612831286120430B600FA30B70073207A
:10036000B60BAD298828831606158312061DF629BB
:10037000F70183169C1B771483122F087706013927
:100380000319CA290330B700E830B600B901C830F4
:10039000B8005520C830B7007320F70183161C1B26
:1003A000771483122F08770601390319E0290730E3
:1003B000B700D030B6000130B9002C30B80055205D
:1003C000C830B70073201F19E3291E087F3C031CA7
:1003D000F2290B30B700B830B6000130B9009030C8
:1003E000B8005520C830B7007320B3298A11782B84
:1003F0008316061383120613831686138312861739
:10040000831606128312061283168612831286162C
:10041000C830B700732083160612831206128316A3
:10042000861283128612831606138312061383160E
:100430008613831286130330B7002030B6000130D4
:10044000B9009030B80055200730B700D030B60062
:100450000330B900E830B800552083160513831225
:1004600005130330B7008430B6000130B900903076
:10047000B800552083160512831205128316061242
:10048000831206128316861283128616831686132B
:100490008312861383160613831206176430B7007F
:1004A0007320831606138312061383168613831292
:1004B000861383160612831206128316861283127F
:1004C00086120330B700E830B6000330B900E830D8
:1004D000B8005520831685138312851383160612E0
:1004E00083120612831686128312861683168613CB
:1004F0008312861383160613831206179C30B500E9
:100500004030B400B408031D882AB5080319B02A86
:10051000F70183169C1B771483122F087706013985
:10052000031D942A0030952A0130AA00F701831692
:100530001C1B771483122F0877060139031DA22A8A
:100540000030A32A0130F7000310F70D7708AA0442
:10055000AA08031DB02A34080319B503B403822A7C
:1005600083160612831206128316861283128612CF
:1005700083160613831206138316861383128613BB
:1005800083160512831205168316851383128517A9
:1005900083160513831205170230AA00AE018A11D3
:1005A000F12B84011F30830583161F129F121B0835
:1005B00080399B0007309C001C0883120D136030AB
:1005C00083168F0006138312061383168613831275
:1005D000861383160612831206128316861283125E
:1005E0008612623083168F00811383129412831651
:1005F00006118614061200308312940083169400AC
:100600000108C739083881004830F80005388312DE
:100610009200FF30831692001F129F121B08803930
:1006200004389B001F1383121F179F1783169F13F5
:1006300083121F141030F8001F08C73978049F0078
:1006400085309000831686150B3083129700960133
:100650000730950083160512831205128316851143
:100660008312851183168513831285138316051350
:1006700083120513023083169C0005080338850099
:100680000330F700F70B422B1C0883120D138F3039
:1006900083169D0003308312B700E830B600B9011D
:1006A000C830B80055203230B70073200330B7008F
:1006B000E830B600B901C830B80055200430B400A5
:1006C000FA30B7007320B40B602B83168C14C03043
:1006D00083128B040330A900AA00AC00AE01AA303B
:1006E000AB008316861483122F1086182F148828C7
:1006F0000230B400FA30B7007320B40B7A2B8316A3
:100700000512831205160330B700E830B600B901B0
:10071000C830B80055200230B400FA30B70073205A
:10072000B40B8D2B83168511831285150330B7000A
:10073000E830B600B901C830B80055200230B40026
:10074000FA30B7007320B40BA02B831685138312E5
:1007500085170330B700E830B600B901C830B800DB
:1007600055200230B400FA30B7007320B40BB32B1D
:1007700083160513831205170330B700E830B6005F
:10078000B901C830B80055200230B400FA30B700C3
:100790007320B40BC62BF70183169C1B77148312AE
:1007A0002F0877060139031DD72B0030D82B0130D5
:1007B000A900F70183161C1B771483122F087706F4
:1007C0000139031DE52B0030E62B0130F700031043
:1007D000F70D7708A9041F19EB2B1E087F3C03189F
:1007E000F8292908033A0319FC2B013A0319312C83
:1007F000033A0319682C9F2C0108B400BE302D0762
:1008000034020319052C03180E2C83168613831249
:1008100086138316061383120617162C83160613E7
:100820008312061383168613831286130108B400FD
:10083000BE302D07340203191F2C0318282C8316F1
:100840008612831286128316061283120616302C25
:1008500083160612831206128316861283128612DC
:10086000CB2B0108B400AA302D07340203193A2C0F
:100870000318432C831686138312861383160613DC
:10088000831206174B2C8316061383120613831646
:100890008613831286130108B400BE302D0734027C
:1008A0000319542C03185D2C8316861283128612AA
:1008B0008316061283120616652C831606128312FF
:1008C000061283168612831286120230AA00CB2BE0
:1008D0000108B400AA302D0734020319712C031843
:1008E0007A2C8316861283128612831606128312BE
:1008F0000616822C8316061283120612831686129F
:10090000831286120108B400BE302D073402031989
:100910008B2C0318942C831686138312861383164C
:100920000613831206179C2C8316061383120613D4
:1009300083168613831286130130AA00CB2BAD01D8
:100940002A082C020319602D831605168312051E32
:10095000AB2C0512AC2C05168316051283122A083F
:10096000AC00C830AB00AE0A2E08083C0318602D5E
:1009700083160613831206138316861383128613B7
:1009800083160612831206128316861283128612AB
:10099000AE010B138B138B1BCA2C0330B700E8304E
:1009A000B6000130B9009030B80055200B30B100CE
:1009B000B830B00031080E3C0318F22CFF3A031D8A
:1009C000E52C30086E3C0318F22C3108B7003008D3
:1009D000B600B9010A30B800552030080319B10338
:1009E000B003DA2C83160512831205120730B70004
:1009F000D030B600B901C830B80055200330B70078
:100A00008430B6000130B9009030B80055200B306A
:100A1000B1008630B00031080B3C031C212D031DB2
:100A2000152D3008B73C031C212D3108B7003008C4
:100A3000B600B9010A30B8005520B00A0319B10A4E
:100A40000B2D8316851183128511831605128312CF
:100A500005160F30B700A030B6000130B900903055
:100A6000B80055200330B700E830B600B901643053
:100A7000B800552083168513831285130B30B700F9
:100A8000B830B6000130B9009030B80055200430BD
:100A9000B400FA30B7007320B40B492D8316051249
:100AA0008312051683168511831285158316851307
:100AB000831285178316051383120517C0308B0424
:100AC0002A08023C031D822D831606138312061387
:100AD000831686138312861301082B02031C792DBB
:100AE0008316861283128612831606128312061646
:100AF000812D831606128312061283168612831224
:100B000086129F2D831606128312061283168612F2
:100B10008312861201082B02031C972D831686135D
:100B20008312861383160613831206179F2D8316CE
:100B30000613831206138316861383128613CB2B98
:020B4000630050
:04400E00383FFC3FFC
:00000001FF
;PIC16F88
