:1000000000308A008E2A0000FF00030E8301A10049
:100010007F08A0000A08A8008A01A00E0408A20018
:100020007708A3007808A4007908A5007A08A6003C
:100030007B08A700831383128C308400801C222845
:100040008C183528220884002308F7002408F800BB
:100050002508F9002608FA002708FB0028088A006E
:10006000210E8300FF0E7F0E09008A1137282B0F07
:100070003A283B28AB0A2D08403C0318AD0A8C10E7
:100080008A1122281230E302031C542863308400B2
:10009000FC3080050310800C800C000803195428E4
:1000A00052280000800B512800346008E2005F08ED
:1000B000E100E108031D5F28E20803197A2883168E
:1000C00005138312051783168513831285135D08A4
:1000D000E3004220831685138312851783160513C8
:1000E000831205135D08E300422061080319E2034F
:1000F000E103592800345E308400000803198F287A
:100100000130F800F701F70B8328F80B82284A30FA
:10011000F700F70B892800000000800B80280034CE
:10012000831686158312861DBB290130DC00F4304E
:10013000DB005C08033C031CB128031DA3285B08FB
:100140001F3C031CB1285C08DE005B08DD005C0876
:10015000E0005B08DF0055206430DB070318DC0A91
:1001600099280430DD00FA30DE007B20DD0BB32857
:1001700083160613831206138316861383128613BF
:1001800083160612831206128316861283128612B3
:10019000831686128312861283160612831206169F
:1001A0000430DD00FA30DE007B20DD0BD228831620
:1001B00006128312061283168612831286120430E8
:1001C000DD00FA30DE007B20DD0BE128831606120D
:1001D0008312061283168612831286160430DD00FF
:1001E000FA30DE007B20DD0BF02883160612831226
:1001F000061283168612831286120430DD00FA304E
:10020000DE007B20DD0BFF280330DE007030DD00D8
:10021000E0016430DF0055200430DD00FA30DE00FC
:100220007B20DD0B0E29831686138312861383161B
:100230000613831206170430DD00FA30DE007B203F
:10024000DD0B1D29831606138312061383168613EE
:10025000831286130430DD00FA30DE007B20DD0BD4
:100260002C29831606138312061383168613831212
:1002700086170430DD00FA30DE007B20DD0B3B29E1
:1002800083160613831206138316861383128613AE
:100290000430DD00FA30DE007B20DD0B4A2903301C
:1002A000DE007030DD00E0016430DF0055200430F6
:1002B000DD00FA30DE007B20DD0B59298316861322
:1002C000831286138316061383120617831686126B
:1002D0008312861283160612831206160430DD007E
:1002E000FA30DE007B20DD0B7029831606138312A3
:1002F000061383168613831286138316061283123F
:10030000061283168612831286120430DD00FA303C
:10031000DE007B20DD0B872983160613831206136C
:10032000831686138312861783160612831206120B
:1003300083168612831286160430DD00FA30DE0042
:100340007B20DD0B9E29831606138312061383166A
:1003500086138312861383160612831206128316DF
:100360008612831286120430DD00FA30DE007B2014
:10037000DD0BB5299028831606158312061DEE297C
:1003800083169C1BCE2903308312DE00E830DD008B
:100390000330E000E830DF00552083161C1BDB290A
:1003A00007308312DE00D030DD000730E000D030AF
:1003B000DF005520831683121F1DE0298316DB29D9
:1003C0001E087F3C031CED290B30DE00B830DD0039
:1003D0000B30E000B830DF005520BB298A111F2BFD
:1003E000831606128312061283168612831286164D
:1003F0008316061383120613831686138312861739
:100400000330DE002030DD000130E0009030DF00FE
:1004100055200730DE00D030DD000330E000E8304A
:10042000DF0055200330DE008430DD000130E000C5
:100430009030DF00552083160612831206128316B1
:1004400086128312861683168613831286138316EA
:100450000613831206173230DE007B208316061344
:1004600083120613831686138312861383160612CD
:100470008312061283168612831286120330DE0060
:10048000E830DD000330E000E830DF00552083165F
:10049000061283120612831686128312861683169C
:1004A00086138312861383160613831206179C3055
:1004B000DC004030DB00DB08031D612ADC08031987
:1004C000792AAA0183169C1B682A8312AA0A83161A
:1004D00000301C1F0130F7000310F70D770883125E
:1004E000AA04AA08031D792A5B080319DC03DB03AD
:1004F0005B2A831606128312061283168612831253
:10050000861283160613831206138316861383122C
:1005100086130230AA00AE018A114B2B84011F30D2
:10052000830583161F129F121B0880399B0007301A
:100530009C001C0883120D13603083168F00061375
:1005400083120613831686138312861383160612EC
:100550008312061283168612831286126230831665
:100560008F008113831294128316061186140612CB
:10057000003083129400831694000108C7390838AC
:1005800081004830F800053883129200FF3083164E
:1005900092001F129F121B08803904389B001F1302
:1005A00083121F179F1783169F1383121F14103077
:1005B000F8001F08C73978049F0085309000831623
:1005C00086150B3083129700960107309500023094
:1005D00083169C000508033885000330F700F70BED
:1005E000EF2A1C0883120D138F3083169D000330F1
:1005F0008312DE00E830DD00E001C830DF00552066
:100600003230DE007B200330DE00E830DD00E00128
:10061000C830DF0055200430DB00FA30DE007B20DC
:10062000DB0B0D2B83168C14C03083128B0403302C
:10063000A900AA00AC00AE01AA30AB00902802309D
:10064000DB00FA30DE007B20DB0B212B0330DE00E9
:10065000E830DD00E001C830DF0055200230DB006B
:10066000FA30DE007B20DB0B302BA90183169C1BAC
:100670003C2B8312A90A831600301C1F0130F7009F
:100680000310F70D77088312A9041F19452B1E08C4
:100690007F3C0318F0292908033A0319562B013A25
:1006A00003198B2B033A0319C22BF92B0108DB002A
:1006B000BE302D075B0203195F2B0318682B8316CE
:1006C0008613831286138316061383120617702B64
:1006D000831606138312061383168613831286135A
:1006E0000108DB00BE302D075B020319792B0318CC
:1006F000822B8316861283128612831606128312A9
:1007000006168A2B83160612831206128316861289
:1007100083128612352B0108DB00AA302D075B02FD
:100720000319942B03189D2B8316861383128613AB
:100730008316061383120617A52B8316061383123E
:10074000061383168613831286130108DB00BE305E
:100750002D075B020319AE2B0318B72B83168612E5
:10076000831286128316061283120616BF2B831677
:100770000612831206128316861283128612023024
:10078000AA00352B0108DB00AA302D075B020319F4
:10079000CB2B0318D42B8316861283128612831652
:1007A000061283120616DC2B83160612831206121B
:1007B00083168612831286120108DB00BE302D07D5
:1007C0005B020319E52B0318EE2B831686138312A5
:1007D00086138316061383120617F62B8316061349
:1007E0008312061383168613831286130130AA0020
:1007F000352BAD012A082C0203198F2C2A08AC00D6
:10080000C830AB00AE0A2E080A3C03188F2C8316A2
:100810000613831206138316861383128613831618
:100820000612831206128316861283128612AE01F6
:100830000B138B138B1B192C0330DE00E830DD000B
:100840000130E0009030DF0055200B30D800B83088
:10085000D70058080E3C0318412CFF3A031D342CD6
:1008600057086E3C0318412C5808DE005708DD007D
:10087000E0010A30DF00552057080319D803D703D9
:10088000292C0730DE00D030DD00E001C830DF0069
:1008900055200330DE008430DD000130E000903070
:1008A000DF0055200B30D8008630D70058080B3CAD
:1008B000031C6C2C031D602C5708B73C031C6C2CCC
:1008C0005808DE005708DD00E0010A30DF0055203F
:1008D000D70A0319D80A562C0F30DE00A030DD00ED
:1008E0000130E0009030DF0055200330DE00E830BA
:1008F000DD00E0016430DF0055200B30DE00B83051
:10090000DD000130E0009030DF0055200430DB00D6
:10091000FA30DE007B20DB0B882CC0308B042A08E9
:10092000023C031DB12C8316061383120613831693
:1009300086138312861301082B02031CA82C83162E
:100940008612831286128316061283120616B02CA4
:1009500083160612831206128316861283128612DB
:10096000CE2C831606128312061283168612831269
:10097000861201082B02031CC62C831686138312D1
:1009800086138316061383120617CE2C83160613BE
:10099000831206138316861383128613352B630086
:04400E00383FFC3FFC
:00000001FF
;PIC16F88
