:1000000000308A00E82C0000FF00030E8301A100ED
:100010007F08A0000A08A8008A01A00E0408A20018
:100020007708A3007808A4007908A5007A08A6003C
:100030007B08A700831383128C308400801C222845
:100040008C183528220884002308F7002408F800BB
:100050002508F9002608FA002708FB0028088A006E
:10006000210E8300FF0E7F0E09008A113728420FF0
:100070003A283C280130C20743080E3C0318C30A43
:100080004608573C0318C60A8C108A1122281230E1
:100090008316A202031C5A28A2308400FC3080057B
:1000A0000310800C800C000803195A2858280000FF
:1000B000800B5728831200347D088316A1007C082A
:1000C000A000A008031D6728A108031986280513AE
:1000D00083120517831685138312851374088316FC
:1000E000A200831247208316851383128517831677
:1000F00005138312051374088316A2008312472088
:10010000831620080319A103A00361288312003479
:1001100075308400000803199C280130F800F701AD
:10012000F70B9028F80B8F284A30F700F70B96282A
:1001300000000000800B8D28003483168615831282
:10014000861DC8290130F200F430F1007208033C2A
:10015000031CBE28031DB02871081F3C031CBE28C9
:100160007208F5007108F4007208FD007108FC00C7
:100170005C206430F1070318F20AA6280430F3006B
:10018000FA30F5008820F30BC0288316061383127B
:1001900006138316861383128613831606128312A0
:1001A0000612831686128312861283168612831213
:1001B000861283160612831206160430F300FA30F4
:1001C000F5008820F30BDF2883160612831206122F
:1001D00083168612831286120430F300FA30F5007B
:1001E0008820F30BEE28831606128312061283165C
:1001F0008612831286160430F300FA30F500882048
:10020000F30BFD288316061283120612831686123C
:10021000831286120430F300FA30F5008820F30BC5
:100220000C290330F5007030F400FD016430FC004F
:100230005C200430F300FA30F5008820F30B1B2912
:1002400083168613831286138316061383120617EA
:100250000430F300FA30F5008820F30B2A298316C6
:100260000613831206138316861383128613043033
:10027000F300FA30F5008820F30B392983160613B2
:100280008312061383168613831286170430F30035
:10029000FA30F5008820F30B4829831606138312E1
:1002A000061383168613831286130430F300FA3084
:1002B000F5008820F30B57290330F5007030F40067
:1002C000FD016430FC005C200430F300FA30F500DE
:1002D0008820F30B662983168613831286138316F0
:1002E000061383120617831686128312861283164C
:1002F0000612831206160430F300FA30F500882047
:10030000F30B7D29831606138312061383168613B7
:100310008312861383160612831206128316861220
:10032000831286120430F300FA30F5008820F30BB4
:1003300094298316061383120613831686138312D9
:1003400086178316061283120612831686128312EC
:1003500086160430F300FA30F5008820F30BAB2941
:1003600083160613831206138316861383128613CD
:1003700083160612831206128316861283128612C1
:100380000430F300FA30F5008820F30BC2299D28D1
:10039000831606158312061DFB2983169C1FDB2975
:1003A0000330F5008430F4000130FD00F430FC002F
:1003B00083125C2083161C1FE8290330F5002030CF
:1003C000F4000130FD00F430FC0083125C20831641
:1003D00083121F1DED298316E8291E087F3C031C8C
:1003E000FA290330F500E830F4000130FD00F43064
:1003F000FC005C20C8298A11962D7530F50030303C
:10040000F400003083169C1B0130003A03190A2ABD
:100410001C1F642A7408303C031D5E2A7508753C55
:10042000031D5E2AF501F40183124508023A0319FF
:10043000202A033A0319332A023A0319462A5D2A6D
:1004400083168613831286138316061383120617E8
:1004500083160612831206128316861283128616DC
:100460000130C5005D2A8316861283128612831618
:1004700006128312061683160613831206138316BA
:100480008613831286170230C5005D2A83168613F1
:100490008312861383160613831206178316061219
:1004A0008312061283168612831286160130C50047
:1004B0003A30F5009830F4005D2A8316F40A0319E7
:1004C000F50A8312012A8316061383120613831674
:1004D000861383128613831606128312061283165E
:1004E000861283128612C10183169C1F7A2A8312F8
:1004F000C10A831600301C1B0130F7000310F70DF2
:1005000077088312C104C1080319FD290330C10013
:100510000034831606138312061383168613831280
:10052000861783160612831206128316861283120A
:100530008616C830F500882083160612831206122C
:1005400083168612831286128316061383120613ED
:1005500083168613831286130330F5008430F4006B
:100560000330FD00E830FC005C2083160613831284
:100570000613831686138312861783168612831238
:1005800086128316061283120616D730F5008820CD
:10059000831686128312861283160612831206169B
:1005A0008316861383128613831606138312061787
:1005B0000330F300C830F5008820F30BDA2A8316E5
:1005C00006128312061283168612831286163230A2
:1005D000F5008820831606128312061283168612EF
:1005E00083128612831686138312861383160613CC
:1005F000831206170330F300C830F5008820F30B90
:10060000FC2A831686128312861283160612831220
:100610000616831686138312861383160613831217
:1006200006176430F50088200230F2005830F100DF
:10063000F108031D1E2BF20803193D2BC10183167F
:100640009C1F252B8312C10A831600301C1B01300E
:10065000F7000310F70D77088312C104C1080319CE
:10066000352B3230F50088203D2B0130F5008820F5
:1006700071080319F203F103182B83160613831272
:10068000061383168613831286170230F200583041
:10069000F100F108031D4F2BF20803196A2BC10169
:1006A00083169C1F562B8312C10A831600301C1B15
:1006B0000130F7000310F70D77088312C104C10859
:1006C000031D6A2B0130F500882071080319F2031D
:1006D000F103492B83160612831206128316861223
:1006E000831286128316061383120613831686134B
:1006F000831286130130C500FD21C6018A11C62D63
:100700008316061383120613831686138312861329
:10071000831606128312061283168612831286121D
:100720004208F3000330F500E830F4000130FD002A
:10073000F430FC005C204508023A0319A62B033A6A
:100740000319DE2B023A0319162C182C0230F20082
:100750005830F100F108031DB02BF2080319CD2B1E
:1007600001087302031CBD2B8316061283120612A6
:100770008316861283128616C52B831606128312E1
:10078000061283168612831286120130F500882025
:1007900071080319F203F103AA2B831606138312BF
:1007A000061383168613831286138316061283128A
:1007B00006128316861283128612182C0230F2005B
:1007C0005830F100F108031DE82BF2080319052C3D
:1007D00001087302031CF52B8316061383120613FC
:1007E0008316861383128617FD2B83160613831236
:1007F000061383168613831286130130F5008820B2
:1008000071080319F203F103E22B83160613831216
:100810000613831686138312861383160612831219
:1008200006128316861283128612182CD22C182CCC
:100830000330F5002030F4000130FD00F430FC00FE
:100840005C20C1018316861283128612831606125B
:100850008312061683160613831206138316861355
:10086000831286170230F4009630F5008820F40BCE
:10087000342CC108031D4D2CC10183169C1F432C31
:100880008312C10A831600301C1B0130F7000310CD
:10089000F70D77088312C104392C8316861383124F
:1008A0008613831606138312061783160612831205
:1008B000061283168612831286163C30F5008820B5
:1008C0008316061383120613831686138312861368
:1008D000831606128312061283168612831286125C
:1008E0008316861383128613831606138312061744
:1008F0008316061283120612831686128312861638
:100900000230F400FA30F5008820F40B822C8316B4
:100910000613831206138316861383128613831617
:100920000612831206128316861283128612043070
:10093000F400FA30F5008820F40B992C8316861207
:1009400083128612831606128312061683168613E6
:10095000831286138316061383120617F201FA30E8
:10096000F100F108031DB72CF2080319D22CC101C4
:1009700083169C1FBE2C8312C10A831600301C1BD9
:100980000130F7000310F70D77088312C104C10886
:10099000031DD22C0130F500882071080319F203E1
:1009A000F103B12C831606138312061383168613E4
:1009B000831286138316061283120612831686127A
:1009C000831286120330C500FD21C6018A115C2EF8
:1009D00084011F30830583161F129F121B08803964
:1009E0009B0007309C001C0883120D136030831697
:1009F0008F0082308312A9009830AA00AB004030EB
:100A0000AC00AD00AE006030AF008630B000B43056
:100A1000B1006030B200A430B300B400B500613062
:100A2000B6000330B700F030B80083160613831207
:100A300006138316861383128613831606128312F7
:100A400006128316861283128612623083168F0076
:100A50008113831294128316061186140612003035
:100A600083129400831694000108C7390838810066
:100A70004830F800053883129200FF308316920048
:100A80001F129F121B08803904389B001F1383120A
:100A90001F179F1783169F1383121F141030F8001F
:100AA0001F08C73978049F0085309000831686158B
:100AB0000B308312970096010730950002308316A1
:100AC0009C000508033885000330F700F70B662DFE
:100AD0001C0883120D138A3083169D000330F50025
:100AE000E830F400FD01C830FC0083125C20323095
:100AF000F50088200330F500E830F400FD01C8302F
:100B0000FC005C200430F100FA30F5008820F10B85
:100B1000842D83168C14C03083128B040330C000E4
:100B2000C100C400C500E630C2009D280230F100BB
:100B3000FA30F5008820F10B982D0330F500E830ED
:100B4000F400FD01C830FC005C200230F100FA30F6
:100B5000F5008820F10BA72DC00183169C1FB32D33
:100B60008312C00A831600301C1B0130F7000310EB
:100B7000F70D77088312C0041F19BC2D1E087F3C97
:100B8000031CC62D4608323C0318892A4008033A44
:100B90000319D12D013A0319E52D033A03191E2E2D
:100BA000572E831686138312861383160613831219
:100BB0000617831686128312861283160612831274
:100BC0000616C6010330C500AC2D0108F100E63061
:100BD000430771020319EE2D0318F72D83168613B0
:100BE000831286138316061383120617FF2D8316AE
:100BF00006138312061383168613831286130108C5
:100C0000F100F030430771020319082E0318112E6A
:100C10008316861283128612831606128312061614
:100C2000192E831606128312061283168612831259
:100C300086120230C100C601C500AC2D0108F100CA
:100C4000E630430771020319272E0318302E83164E
:100C50008612831286128316061283120616382E07
:100C600083160612831206128316861283128612C8
:100C70000108F100F030430771020319412E0318F7
:100C80004A2E831686138312861383160613831245
:100C90000617522E83160613831206138316861325
:100CA000831286130130C100C601C500AC2DC301FB
:100CB0004608563C031C802B410844020319642E4D
:100CC0004108C400C830C2004108023C031D882E00
:100CD0008316061383120613831686138312861354
:100CE00001084202031C7D2E83168612831286128F
:100CF0008316061283120616852E83160612831299
:100D0000061283168612831286120230C500A72EA1
:100D10008316061283120612831686128312861217
:100D200001084202031C9D2E83168613831286132C
:100D30008316061383120617A52E83160613831235
:100D4000061383168613831286130130C500AC2D5B
:020D500063003E
:04400E00383FFC3FFC
:00000001FF
;PIC16F88
