:1000000000308A00722C0000FF00030E8301A10063
:100010007F08A0000A08A8008A01A00E0408A20018
:100020007708A3007808A4007908A5007A08A6003C
:100030007B08A700831383128C308400801C222845
:100040008C183528220884002308F7002408F800BB
:100050002508F9002608FA002708FB0028088A006E
:10006000210E8300FF0E7F0E09008A113728420FF0
:100070003A283C280130C20743080E3C0318C30A43
:100080004608783C0318C60A8C108A1122281230C0
:100090008316A202031C5A28A2308400FC3080057B
:1000A0000310800C800C000803195A2858280000FF
:1000B000800B5728831200347D088316A1007C082A
:1000C000A000A008031D6728A108031986280513AE
:1000D00083120517831685138312851374088316FC
:1000E000A200831247208316851383128517831677
:1000F00005138312051374088316A2008312472088
:10010000831620080319A103A00361288312003479
:1001100074308400000803199C280130F800F701AE
:10012000F70B9028F80B8F284A30F700F70B96282A
:1001300000000000800B8D28003483168615831282
:10014000861DC8290130F200F430F1007208033C2A
:10015000031CBE28031DB02871081F3C031CBE28C9
:100160007208F5007108F4007208FD007108FC00C7
:100170005C206430F1070318F20AA6280430F3006B
:10018000FA30F4008820F30BC0288316061383127C
:1001900006138316861383128613831606128312A0
:1001A0000612831686128312861283168612831213
:1001B000861283160612831206160430F300FA30F4
:1001C000F4008820F30BDF28831606128312061230
:1001D00083168612831286120430F300FA30F4007C
:1001E0008820F30BEE28831606128312061283165C
:1001F0008612831286160430F300FA30F400882049
:10020000F30BFD288316061283120612831686123C
:10021000831286120430F300FA30F4008820F30BC6
:100220000C290330F5007030F400FD016430FC004F
:100230005C200430F300FA30F4008820F30B1B2913
:1002400083168613831286138316061383120617EA
:100250000430F300FA30F4008820F30B2A298316C7
:100260000613831206138316861383128613043033
:10027000F300FA30F4008820F30B392983160613B3
:100280008312061383168613831286170430F30035
:10029000FA30F4008820F30B4829831606138312E2
:1002A000061383168613831286130430F300FA3084
:1002B000F4008820F30B57290330F5007030F40068
:1002C000FD016430FC005C200430F300FA30F400DF
:1002D0008820F30B662983168613831286138316F0
:1002E000061383120617831686128312861283164C
:1002F0000612831206160430F300FA30F400882048
:10030000F30B7D29831606138312061383168613B7
:100310008312861383160612831206128316861220
:10032000831286120430F300FA30F4008820F30BB5
:1003300094298316061383120613831686138312D9
:1003400086178316061283120612831686128312EC
:1003500086160430F300FA30F4008820F30BAB2942
:1003600083160613831206138316861383128613CD
:1003700083160612831206128316861283128612C1
:100380000430F300FA30F4008820F30BC2299D28D2
:10039000831606158312061DFB2983169C1FDB2975
:1003A0000330F5008430F4000130FD00F430FC002F
:1003B00083125C2083161C1FE8290330F5002030CF
:1003C000F4000130FD00F430FC0083125C20831641
:1003D00083121F1DED298316E8291E087F3C031C8C
:1003E000FA290330F500E830F4000130FD00F43064
:1003F000FC005C20C8298A11202D7530F5003030B2
:10040000F400003083169C1B0130003A03190A2ABD
:100410001C1F642A7408303C031D5E2A7508753C55
:10042000031D5E2AF501F40183124508023A0319FF
:10043000202A033A0319332A023A0319462A5D2A6D
:1004400083168613831286138316061383120617E8
:1004500083160612831206128316861283128616DC
:100460000130C5005D2A8316861283128612831618
:1004700006128312061683160613831206138316BA
:100480008613831286170230C5005D2A83168613F1
:100490008312861383160613831206178316061219
:1004A0008312061283168612831286160130C50047
:1004B0003A30F5009830F4005D2A8316F40A0319E7
:1004C000F50A8312012A8316061383120613831674
:1004D000861383128613831606128312061283165E
:1004E000861283128612C10183169C1F7A2A8312F8
:1004F000C10A831600301C1B0130F7000310F70DF2
:1005000077088312C104C1080319FD290330C10013
:100510000034831606138312061383168613831280
:10052000861783160612831206128316861283120A
:1005300086169630F400882083160612831206125F
:1005400083168612831286128316061383120613ED
:1005500083168613831286130330F5008430F4006B
:100560000330FD00E830FC005C2083160612831285
:10057000061283168612831286168316861383123A
:10058000861383160613831206170230F300873092
:10059000F4008820F30BC72A831686128312861272
:1005A0008316061283120616831686138312861389
:1005B00083160613831206170230F300FA30F40094
:1005C0008820F30BDE2A8316061383120613831684
:1005D0008613831286171E30F400882083160613B4
:1005E00083120613831686138312861383168612CC
:1005F0008312861283160612831206160230F30047
:10060000FA30F4008820F30B002B83168612831235
:100610008612831606128312061683168613831219
:10062000861383160613831206176430F40088209D
:100630009C30F2004030F100F108031D222BF2083B
:1006400003193E2BC10183169C1F292B8312C10A5B
:10065000831600301C1B0130F7000310F70D7708DC
:100660008312C104C1080319392B9630F400882085
:100670003E2B71080319F203F1031C2B831606129B
:100680008312061283168612831286168316861329
:100690008312861383160613831206179C30F2000A
:1006A0004030F100F108031D582BF2080319702B9C
:1006B000C10183169C1F5F2B8312C10A8316003071
:1006C0001C1B0130F7000310F70D77088312C104DB
:1006D000C108031D702B71080319F203F103522B9B
:1006E000831606128312061283168612831286124E
:1006F000831606138312061383168613831286133A
:100700000230C500FD21C6018A11502D8316061343
:10071000831206138316861383128613831606121A
:100720008312061283168612831286124208F30081
:100730000330F500E830F4000130FD00F430FC0037
:100740005C204508023A0319AC2B033A0319E42B49
:10075000023A03191C2C1E2C0230F200EE30F1007C
:10076000F108031DB62BF2080319D32B01087302FD
:10077000031CC32B831606128312061283168612DD
:1007800083128616CB2B831606128312061283164B
:100790008612831286120130F40088207108031932
:1007A000F203F103B02B831606138312061383168C
:1007B000861383128613831606128312061283167B
:1007C0008612831286121E2C0230F200EE30F100E7
:1007D000F108031DEE2BF20803190B2C010873021C
:1007E000031CFB2B83160613831206138316861332
:1007F00083128617032C831606138312061383169F
:100800008613831286130130F400882071080319BF
:10081000F203F103E82B83160613831206138316E3
:10082000861383128613831606128312061283160A
:100830008612831286121E2C5C2C1E2C0330F500AF
:10084000E830F4000130FD00F430FC005C20831639
:1008500086128312861283160612831206168316D8
:10086000861383128613831606138312061701302C
:10087000F2002C30F100F108031D412CF20803199D
:100880005C2CC10183169C1F482C8312C10A83165D
:1008900000301C1B0130F7000310F70D770883129E
:1008A000C104C108031D5C2C0130F40088207108CC
:1008B0000319F203F1033B2C83160613831206136C
:1008C000831686138312861383160612831206126A
:1008D00083168612831286120330C500FD21C601DD
:1008E0008A11E62D84011F30830583161F129F1283
:1008F0001B0880399B0007309C001C0883120D13D5
:10090000603083168F0082308312A9009830AA00CD
:10091000AB004030AC00AD00AE006030AF008630C0
:10092000B000B430B1006030B200A430B300B40005
:10093000B5006130B6000330B700F030B800831660
:1009400006138312061383168613831286138316E7
:1009500006128312061283168612831286126230E2
:1009600083168F0081138312941283160611861446
:100970000612003083129400831694000108C739D0
:10098000083881004830F800053883129200FF30A3
:10099000831692001F129F121B08803904389B0097
:1009A0001F1383121F179F1783169F1383121F1481
:1009B0001030F8001F08C73978049F008530900078
:1009C000831686150B308312970096010730950029
:1009D000023083169C000508033885000330F700B9
:1009E000F70BF02C1C0883120D13863083169D0024
:1009F0000330F500E830F400FD01C830FC0083123C
:100A00005C203230F40088200330F500E830F40038
:100A1000FD01C830FC005C200430F100FA30F40025
:100A20008820F10B0E2D83168C14C03083128B049A
:100A30000330C000C100C400C500E630C2009D28DC
:100A40000230F100FA30F4008820F10B222D03303F
:100A5000F500E830F400FD01C830FC005C200230F5
:100A6000F100FA30F4008820F10B312DC00183161B
:100A70009C1F3D2D8312C00A831600301C1B0130C1
:100A8000F7000310F70D77088312C0041F19462DD5
:100A90001E087F3C031C502D4608323C0318892A4F
:100AA0004008033A03195B2D013A03196F2D033AED
:100AB0000319A82DE12D831686138312861383163E
:100AC0000613831206178316861283128612831664
:100AD000061283120616C6010330C500362D010822
:100AE000F100E630430771020319782D0318812DB8
:100AF0008316861383128613831606138312061732
:100B0000892D831606138312061383168613831208
:100B100086130108F100F030430771020319922D8A
:100B200003189B2D831686128312861283160612D3
:100B300083120616A32D831606128312061283163D
:100B40008612831286120230C100C601C500362DFE
:100B50000108F100E630430771020319B12D0318B3
:100B6000BA2D8316861283128612831606128312FA
:100B70000616C22D831606128312061283168612DB
:100B8000831286120108F100F03043077102031945
:100B9000CB2D0318D42D8316861383128613831648
:100BA000061383120617DC2D831606138312061311
:100BB00083168613831286130130C100C601C50057
:100BC000362DC3014608773C031C862B410844029E
:100BD0000319EE2D4108C400F030C2004108023C68
:100BE000031D122E83160613831206138316861313
:100BF0008312861301084202031C072E83168612F5
:100C00008312861283160612831206160F2E83167F
:100C1000061283120612831686128312861202307F
:100C2000C500312E83160612831206128316861211
:100C30008312861201084202031C272E8316861394
:100C40008312861383160613831206172F2E83161C
:100C5000061383120613831686138312861301303C
:060C6000C500362D630003
:04400E00383FFC3FFC
:00000001FF
;PIC16F88
